{
  "_format": "hh-sol-artifact-1",
  "contractName": "StorageContract",
  "sourceName": "contracts/StorageContract.sol",
  "abi": [
    {
      "inputs": [],
      "stateMutability": "nonpayable",
      "type": "constructor"
    },
    {
      "inputs": [],
      "name": "getValue",
      "outputs": [
        {
          "internalType": "uint256",
          "name": "",
          "type": "uint256"
        }
      ],
      "stateMutability": "view",
      "type": "function"
    },
    {
      "inputs": [
        {
          "internalType": "uint256",
          "name": "_value",
          "type": "uint256"
        }
      ],
      "name": "storeValue",
      "outputs": [],
      "stateMutability": "nonpayable",
      "type": "function"
    }
  ],
  "bytecode": "0x608060405234801561001057600080fd5b50336000806101000a81548173ffffffffffffffffffffffffffffffffffffffff021916908373ffffffffffffffffffffffffffffffffffffffff16021790555061026d806100606000396000f3fe608060405234801561001057600080fd5b50600436106100365760003560e01c8063209652551461003b5780637221a26a14610059575b600080fd5b610043610075565b60405161005091906101ea565b60405180910390f35b610073600480360381019061006e919061012c565b61007f565b005b6000600154905090565b60008054906101000a900473ffffffffffffffffffffffffffffffffffffffff1673ffffffffffffffffffffffffffffffffffffffff163373ffffffffffffffffffffffffffffffffffffffff161461010d576040517f08c379a0000000000000000000000000000000000000000000000000000000008152600401610104906101ca565b60405180910390fd5b8060018190555050565b60008135905061012681610220565b92915050565b60006020828403121561013e57600080fd5b600061014c84828501610117565b91505092915050565b6000610162602283610205565b91507f68616e7961206f776e65722079616e6720626f6c65682073746f72652076616c60008301527f75650000000000000000000000000000000000000000000000000000000000006020830152604082019050919050565b6101c481610216565b82525050565b600060208201905081810360008301526101e381610155565b9050919050565b60006020820190506101ff60008301846101bb565b92915050565b600082825260208201905092915050565b6000819050919050565b61022981610216565b811461023457600080fd5b5056fea2646970667358221220cf8ba75b7a59df336306f8592ee0ac6640e4463b6e53689dd8d484388a24b20164736f6c63430008000033",
  "linkReferences": {},
  "deployedLinkReferences": {}
}